:020000040800F2
:1000000028040020C10100084F0A00084B0A00081C
:100010004D0A000883080008F90F000800000000DE
:100020000000000000000000000000002F0D00088C
:10003000F108000800000000F50A0008050E00089D
:10004000DB010008DB010008DB010008DB01000820
:10005000DB010008DB010008DB010008DB01000810
:10006000DB010008DB010008DB010008DB01000800
:10007000DB010008DB010008DB010008DB010008F0
:10008000DB010008DB010008DB010008DB010008E0
:10009000DB010008DB010008DB010008DB010008D0
:1000A000DB010008DB010008DB010008DB010008C0
:1000B000DB010008DB010008DB010008DB010008B0
:1000C000DB010008DB010008DB010008DB010008A0
:1000D000DB010008650E0008DB010008DB010008F9
:1000E000DB010008DB010008DB010008DB01000880
:1000F000DB010008DB010008DB010008DB01000870
:10010000DB010008DB010008DB010008DB0100085F
:10011000DB010008DB010008DB010008DB0100084F
:10012000DB010008DB010008DB010008DB0100083F
:10013000DB010008DB010008DB010008DB0100082F
:10014000DB010008DB010008DB010008DB0100081F
:10015000DB010008DB010008DB010008DB0100080F
:10016000DB010008DB010008DB010008DB010008FF
:10017000DB010008DB010008DB010008DB010008EF
:10018000DB010008DB010008DB010008DB010008DF
:10019000DB010008DB010008DB010008DB010008CF
:1001A000DB010008DB010008DB010008DFF80CD0F0
:1001B00000F02AFA0048004715190008280400201A
:1001C0000648804706480047FEE7FEE7FEE7FEE7F1
:1001D000FEE7FEE7FEE7FEE7FEE7FEE7090E0008A2
:1001E000AD01000800F0004230F000400AD0C10D1F
:1001F00001F56071C0F3160042EA0151C2084007E0
:100200001143704700200146704730B50B46014648
:1002100000202022012409E021FA02F59D4205D3A5
:1002200003FA02F5491B04FA02F52844151EA2F14F
:100230000102F1DC30BD2DE9F05F05460020924659
:100240009B4688460646814640241BE02846414698
:100250004746224600F0F9F953465A46C01A9141E2
:1002600010D311461846224600F0E0F92D1A67EB2C
:1002700001084F4622460120002100F0D7F917EB74
:1002800000094E41201EA4F10104DFDC484631463E
:100290002A464346BDE8F09F2DE9FE4F804681EA9D
:1002A0000300C00F0C46009021F0004123F00045F0
:1002B000B8EB0200A94105D24046214690461C46B3
:1002C0000B46024623F00040104347D0270DC7F3EA
:1002D0000A00C3F30A510290401A019040286BDAD9
:1002E000C3F3130040F4801B0098924620B1002312
:1002F000D2EB030A63EB0B0B01985946C0F14002A5
:10030000504600F093F906460D4650465946019A6C
:1003100000F0ABF910EB08006141002487EA1152AC
:1003200084EAE7731A4340D0009A62B3019A012A23
:100330004FEA075215DC001B61EB02014FF000424F
:1003400002EA0752CDE90042001C41F58011324615
:100350002B4600F0ABF903B0BDE8F08F40462146D4
:10036000F9E7001B61EB0201001C41F58013001846
:100370005B412018A2F5001747EB030140EAD57056
:10038000B6196D4111E06D084FEA360645EAC075B1
:100390004FEA0752001B61EB0201001C41F580117E
:1003A00049084FEA30000019514132462B4603B04C
:1003B000BDE8F04F00F06BB9009801224000002327
:1003C000D0EB020263EBE073009821464FEAE07441
:1003D000B8EB000061EB0401E9E783F000435BE761
:1003E00081F0004158E72DE9FE4F81EA030404F053
:1003F000004421F0004100944FF0000B23F0004333
:1004000050EA01045ED052EA03045BD0C3F30A54FD
:10041000C1F30A552C44A4F2F3340194A0FB025416
:10042000C1F3130141F48011C3F3130343F48013A8
:1004300001FB024400FB034E840A970A44EA8154FC
:1004400047EA8357A4FB076802958D0A05FB0785D9
:100450004FEA932C04FB0C542705029D4FEA0658E3
:1004600047EA1637B5EB08056EEB070C870E920EC0
:1004700047EA811742EA8312A7FB0201B6EB0B01A0
:1004800064EB00042B0D43EA0C335E1844EB1C5064
:10049000DA465146E7FB0201C5F313044FEA0B337A
:1004A00043EA14534FEA0432019C43EA0603A4F1E1
:1004B0000C040294009CCDE900B400F0F7F803B0FE
:1004C000BDE8F08F00200146F9E72DE9F04D81EA03
:1004D000030404F0004B21F0004514464FF0000ADD
:1004E00023F0004150EA050220D054EA01021DD059
:1004F000C5F30A570246C5F31303C1F31300C1F352
:100500000A5640F4801543F48013A7EB0608101B2D
:10051000D64608F2FD3873EB050002D308F1010856
:1005200001E092185B41B8F1000F03DA00200146A8
:10053000BDE8F08D00204FF48011064684460EE0A1
:10054000171B73EB050705D3121B63EB050306436B
:100550004CEA010C49084FEA300092185B4150EA1E
:100560000107EDD152EA030012D082EA040083EAC7
:100570000501084305D0101BAB4106D20122002320
:1005800006E000224FF0004302E06FF0010253103A
:100590001AEB06004CEB085110EB0A0041EB0B0183
:1005A000BDE8F04D00F073B8C1F30A52C1F3130176
:1005B00040F2FF3341F480119A4202DA00200146F2
:1005C000704740F233439A42A2F2334202DC524275
:1005D00000F03BB800F02AB830B5041E71F10004F9
:1005E00004DB4FF00044404264EB0101141E73F140
:1005F000000405DB1C464FF00043524263EB04034A
:10060000994208BF904230BD064C074D06E0E068B5
:1006100040F0010394E8070098471034AC42F6D349
:10062000FFF7C8FD381A0008581A0008202A04DB12
:10063000203A00FA02F1002070479140C2F12003F5
:1006400020FA03F3194390407047202A04DB203A34
:1006500021FA02F00021704721FA02F3D040C2F1E2
:1006600020029140084319467047202A06DBCB1729
:10067000203A41FA02F043EAE07306E041FA02F35D
:10068000D040C2F12002914008431946704710B58E
:10069000141E73F1000408DA401C41F100019218A5
:1006A0005B411A4301D120F0010010BD2DE9F04D4E
:1006B00092469B4611B1B1FA81F202E0B0FA80F2A3
:1006C00020329046FFF7B2FF04460F4640EA0A0088
:1006D00041EA0B0153465A46084313D0114653EAE8
:1006E000010019D0C8F140025046FFF7AEFF0546A1
:1006F0000E46504659464246FFF798FF084305D03C
:10070000012004E020463946BDE8F08D0020054375
:1007100046EAE0762C4337430A986305E40AA0EBE7
:1007200008000022FD0A44EA47540A3002D500209E
:100730000146E9E7010510196941DDE9084500199D
:100740006941BDE8F04DA2E7002904D0816841F07D
:10075000010181607047816821F00101816070476B
:1007600010B5074C226807490A40D0E90013194325
:10077000D0E90230034319431143216010BD00004A
:1007800004230140E030FCFF002904D0816841F4DB
:10079000807181607047816821F480718160704749
:1007A000002904D0816841F400718160704781683C
:1007B00021F400718160704730B542680F4B1A40D8
:1007C0000C790B6842EA04221343436083680C4AA5
:1007D0001340D1E9034222434D798C6844EA450431
:1007E00022431A438260C26A22F47002097D491EC4
:1007F000C9B242EA0151C16230BD0000FFFEFFFCF8
:10080000FDF7FFC070B5072609290AD9C568A1F10F
:100810000A0404EB4404A640B543A3401D43C5604D
:1008200007E0056901EB4104A640B543A3401D4321
:1008300005611F23072A09D2446B521E02EB820274
:1008400093409C4391400C43446370BD0D2A09D2F0
:10085000046BD21F02EB820293409C4391400C43F5
:10086000046370BDC46A0D3A02EB820293409C435C
:1008700091400C43C46270BD816841F08041816049
:100880007047FEE7002904D0016841F001010160D2
:100890007047016821F001010160704730B50368BD
:1008A000124A1340CC680A682243D1E905452C431B
:1008B0002243CC6922430C6A22434C6A22438C6A4D
:1008C00022434C6B22438C6B22431A4302604269E1
:1008D00022F00703D1E90B2422431A4342610A693B
:1008E00042604A6882608968C16030BD3F801CF008
:1008F0007047000070B586B00121084600F0FCF892
:100900000121102000F006F900248DF81640012086
:100910008DF8170002258DF815508DF814504002FF
:1009200004901C4E04A9304600F041F88DF8145094
:100930006902049104A9304600F039F807220A211F
:10094000304600F072F807220921304600F06DF8B9
:100950004FF4E1300090ADF80440ADF80640ADF83A
:100960000840ADF80C400C20ADF80A000A4C69466E
:10097000204600F0DBFA00F06BF8012240F225512E
:10098000204600F0B8FA0121204600F081FA06B0B6
:1009900070BD0000000002400010014001B502E0FF
:1009A0000098401E009000980028F9D108BD2DE95C
:1009B000F041002201274FF0030C07FA02F50B6803
:1009C0002B40AB422CD1066853000CFA03F4A6432B
:1009D00006600E79D0F800809E4046EA0806066060
:1009E0000E79012E01D0022E12D18668A6438660B0
:1009F0004E79D0F808809E4046EA08068660466830
:100A0000AE43466045688E799640B6B23543456040
:100A1000C568A543C560CC799C40C3681C43C460CD
:100A2000521C102AC9D3BDE8F08110B54B07DB0E6C
:100A30009A40C90800EB8100016A0F249C40A14341
:100A40000162016A1143016210BDFEE7FEE77047D3
:100A500008B54FF4A06000F043F825208DF80000A1
:100A600001208DF801008DF802008DF80300684622
:100A700000F002F808BD000030B50F23C278012550
:100A80000178002A1FD0154A126802F4E062C2F50C
:100A9000E062C2F30722C2F10404D3404278A240CC
:100AA00084781C401443220101F1E02181F80024E4
:100AB000007800F01F018D404009800000F1E02027
:100AC000C0F8005130BD01F01F008540480980008A
:100AD00000F1E020C0F8805130BD00000CED00E0D6
:100AE0000249084302490860704700000000FA0507
:100AF0000CED00E070470000054A002903D01168A2
:100B00000143116070471168814311607047000014
:100B100030380240054A002903D0116801431160B2
:100B200070471168814311607047000044380240EB
:100B300070B5244B196801F00C01234C00291ED01C
:100B4000224E04291DD008291DD00460196801F027
:100B5000F00109091E4A545C0168E14041601C68CB
:100B600004F4E054A40A145D21FA04F484601B68C0
:100B700003F460435B0BD25CD140C16070BD046084
:100B8000E4E70660E2E70F4A121F1168C1F38055DF
:100B9000116801F03F0135B1B6FBF1F11468C4F3FF
:100BA0008814614305E0B4FBF1F11468C4F38814C0
:100BB00061431268C2F30142521C5200B1FBF2F1D0
:100BC0000160C3E7083802400024F40040787D014A
:100BD000000000207CB501210420FFF78DFF0325D4
:100BE0008DF8045000248DF80740082000906946D5
:100BF0001048FFF7DCFE01210846FFF77DFF8DF866
:100C000004508DF80740102000900B4E6946304686
:100C1000FFF7CDFE01210846FFF76EFF8DF8045067
:100C20008DF807404021009169463046FFF7BFFE2E
:100C30007CBD000000080240000002402DE9F041A8
:100C40009AB001218805FFF757FF324802903248D9
:100C500003900024049403270597069407944FF407
:100C6000006008908000099046110A9600010B90E0
:100C70000C9401250D950E940F940194DFF89C803F
:100C800001A94046FFF70AFE01214046FFF7FAFDA1
:100C900001213046FFF73EFF129410942804119072
:100CA0004FF47060139010A8FFF75AFD8DF855505F
:100CB00014948DF85450169418948DF86470154C53
:100CC00014A94C3C2046FFF777FD002301220D219B
:100CD0002046FFF797FD0023022204212046FFF75C
:100CE00091FD0023032206212046FFF78BFD012101
:100CF0002046FFF755FD01212046FFF745FD012164
:100D00002046FFF721FD2046FFF7B6FD1AB0BDE8EB
:100D1000F08100004C2001401000002010640240CF
:100D200010B5FFF757FFBDE81040FFF787BF7047CA
:100D30001CB50021019100912E4A106840F48030CA
:100D400010604FF4A043106800F400300090019848
:100D5000401C0190009810B901989842F3D1106896
:100D6000800302D50120009000E000910098012846
:100D70003FD120484030016841F0805101601E4958
:100D8000086840F4404008601A480830036803606F
:100D9000036843F400430360036843F4A053036013
:100DA000041F164B2360136843F0807313601368AD
:100DB0009B01FCD50A6842F480320A604A68D2037B
:100DC000FCD50A6842F400320A604A689203FCD5F6
:100DD0000B4A40F205711160016821F003010160C6
:100DE000016841F0020101600168C1F3810102293B
:100DF000FAD11CBD0038024000700040195A40076B
:100E0000003C02407047000010B51248016841F4F0
:100E1000700101601048016841F0010101600E4A53
:100E200000210832116002680C4B1A400260031D59
:100E30000B4A1A60026822F48022026006480C30D5
:100E40000160FFF775FF03494FF0006080390860CB
:100E500010BD000088ED00E000380240FFFFF6FE04
:100E60001030002410B5094C40F22551204600F006
:100E700022F8002808D0204600F0B6F8C1B220467B
:100E8000BDE8104000F0B4B810BD000000100140F3
:100E9000002904D0818941F4005181817047818902
:100EA00021F40051818170470246002012880A42D5
:100EB00000D00120704770B5002440F66A12C1F3DB
:100EC000421301F01F05012606FA05F2012B0CD092
:100ED000022B0DD0838A1340090A8E4000883040CF
:100EE0000BB100B10124204670BD83891340F3E7A4
:100EF000038A1340F0E710B540F66A13C1F34213BA
:100F000001F01F040121A140012B07D0022B07D0C3
:100F100014303AB102680A43026010BD0C30F8E7A1
:100F20001030F6E702688A43026010BD7FB50446C0
:100F30000D46208A20F44051E88808432082A08989
:100F400041F20C618843A9882A8911436A890243C6
:100F50001143A181A08A20F44071A8890843A0828E
:100F60006846FFF7E5FD1E48844202D01D488442D2
:100F700001D1039800E00298A189090408D500EB8B
:100F8000C00101EB001029684900B0FBF1F007E057
:100F900000EBC00101EB001029688900B0FBF1F003
:100FA0006422B0FBF2F109010B096FF018056B43E5
:100FB00000EB8300A3891D044FF0320307D503EB38
:100FC000C000B0FBF2F000F00700084306E003EBBE
:100FD0000010B0FBF2F000F00F00084320817FBD4D
:100FE00000100140001401408088C0F308007047E1
:100FF000C1F3080181807047FEE700000FB4054B84
:1010000010B503A9044A029800F0DAF810BC5DF8A4
:1010100014FB0000F11800081800002002E008C8C6
:10102000121F08C1002AFAD170477047002001E062
:1010300001C1121F002AFBD1704700002DE9FF5F9C
:1010400082B00021DDE90430020DDDF840B0034339
:1010500018D044F61050A2F2FF32424315141198F2
:1010600001281FD0A5EB0B00401C5FEA000A4FF0DF
:1010700000064E4FDFF83891B046504615D5CAF1FC
:10108000000413E0119801244AA3012801D16FEA5A
:101090000B010298119AC0E90031C0E9024206B082
:1010A000BDE8F09FCBF10000DFE704460021404A95
:1010B000491842EB0450CDE9001012E0E00707D0D8
:1010C00032463B4640464946FFF78DF98046894601
:1010D00032463B4610461946FFF785F906460F464D
:1010E0006410002CEAD1DDE90401DDE90023BAF146
:1010F000000F06DAFFF777F942464B46FFF773F920
:1011000005E0FFF7E2F942464B46FFF7DEF90446F9
:101110000E460022284BFFF75FFA03D84FF0FF304E
:10112000014607E00022254B20463146FFF7B4F880
:10113000FFF73AFA102409E0002C0ADB0A22002308
:10114000FFF779F8039B30321A55641E50EA01020A
:10115000F2D1641C039AC4F111031444119A012AB8
:1011600003D0012208430DD10AE0084304D0002037
:101170004FF0110B119072E7A3EB0B056D1E0DE004
:101180005B4504DD4FF0000205F1010504E003DAE0
:101190004FF00002A5F10105002AECD00298119948
:1011A000C0E90231C0E9004579E7000000001440C1
:1011B0000000F03F300000000000F0430000E03F7E
:1011C0002DE9FF4F95B09B468946064600250FE264
:1011D000252877D100242746F84A0121059400E00C
:1011E000044316F8013F203B01FA03F01042F7D107
:1011F00030782A2811D06FF02F033078A0F1300218
:10120000092A16D8059A44F0020402EB820203EB85
:1012100042021044761C0590EFE759F8042B059222
:10122000002A03DA504244F40054059044F00204CA
:10123000761C30782E2816D116F8010F44F00404DD
:101240002A280DD06FF02F023078A0F13003092B3F
:1012500009D807EB870302EB4303C718761CF3E7B3
:1012600059F8047B761C30786C280FD006DC4C28AB
:1012700017D068280DD06A2814D104E0742810D043
:101280007A280FD10DE044F400140AE044F48014ED
:1012900001E044F440147278824202D104F58014D3
:1012A000761C761C307866280BD013DC582877D053
:1012B00009DC002875D04528F6D04628F4D0472808
:1012C0001AD19DE118E0632835D0642879D06528CB
:1012D00012D195E1702873D008DC6728F1D0692815
:1012E0006FD06E280DD06F2806D1B5E073282CD0B2
:1012F000752875D0782874D05A46179990476D1C78
:1013000075E1C4F30250022809D003280DD0D9F8A2
:10131000001004280DD00D6009F1040967E1D9F827
:101320000010EA17C1E90052F6E7D9F800100D8065
:10133000F2E70D70F0E719F8041B8DF8001000209B
:101340008DF80100EA46012003E059F804AB4FF0A4
:10135000FF3061074FF0000102D40DE008F10101F8
:101360008846B9420FDA8045F8DB1AF808100029E0
:10137000F4D108E008F1010188468142FADB1AF84D
:1013800008100029F6D105985B46A0EB0807214616
:101390003846179A00F094FA284400EB080507E055
:1013A0004DE029E10DE01AF8010B5A4617999047D4
:1013B000B8F10108F7D25B4621463846179A13E187
:1013C00042E00A220092C4F302524FF0000A022ABD
:1013D00008D059F804CB032A4FEAEC710AD00DE08B
:1013E00029E02AE009F1070121F00702F2E802C131
:1013F000914609E00FFA8CFC4FEAEC71042A03D104
:101400004FFA8CFC4FEAEC71002907DA0A460021FA
:10141000DCF1000C61EB02012D2202E0220504D573
:101420002B228DF80420012203E0E20701D02022C4
:10143000F7E7904659E00A2102E010220DE0102162
:101440004FF0000A00910BE010224FF0000A44F028
:1014500004040827009203E008224FF0000A0092DB
:10146000C4F30252022A05D059F804CB0021032A02
:1014700008D009E009F1070121F00702F2E802C1F2
:10148000914605E01FFA8CFC042A01D10CF0FF0CF8
:101490004FF00008220728D5702806D0009B83F063
:1014A000100353EA0A0305D00EE040228DF8042011
:1014B000012208E05CEA010206D030228DF8042007
:1014C0008DF8050002229046009B83F0080353EA42
:1014D0000A030AD15CEA010201D1620705D5302274
:1014E0008DF804204FF001087F1E582804D034A046
:1014F00003900EA802900DE036A0F9E7534660462F
:10150000009AFEF798FE84460398825C0298401E7B
:10151000029002705CEA0100F0D1029806A9081A54
:1015200000F1200A600702D524F4803400E001278E
:10153000574502DDA7EB0A0000E0002000EB0A019E
:10154000009005984144401A0590E00306D45B469C
:101550002146179A059800F0B3F90544002706E0E4
:1015600001A85A46C05D179990476D1C7F1C4745DE
:10157000F6DBE0030CD55B462146179A059800F090
:101580009FF9054404E030205A46179990476D1C96
:101590000099481E00900029F5DC08E002980299A5
:1015A0005A460078491C0291179990476D1CBAF170
:1015B0000001AAF1010AF1DC65E10000092801003F
:1015C00030313233343536373839616263646566B9
:1015D000000000003031323334353637383941427B
:1015E000434445460000000000F058F90544761CCD
:1015F000307800287FF4ECAD19B02846BDE8F08FB4
:10160000620700D4062709F1070222F0070CFCE864
:101610000223E14603F000485FEA080C02D00FF213
:10162000702C0DE05FEA045C02D50FF2682C07E035
:101630005FEAC47C02D00FF2602C01E0AFF2700CC4
:101640004FF0FF3823F00043CDF850C065280CD090
:1016500006DC452809D046281DD047283DD13DE06D
:10166000662818D067287ED138E00021112F01DBD1
:10167000112000E0781CCDE9000106A90EA8FFF7B3
:10168000DDFCDDE90F010E9A03910021009207F1C4
:10169000010A04914DE04FF000400097CDE90110A0
:1016A00006A90EA8FFF7CAFCDDE90F0203920E9B04
:1016B00011990022DDF80CA00093049211B9791C55
:1016C00000EB010AB7EB0A0004D4C0F1FF3007F1C8
:1016D000010A0490AAEB0700019044E0012F00DA10
:1016E00001270021112F01DD112000E03846CDE94E
:1016F000000106A90EA8FFF7A1FCDDE90F010E9A73
:101700000391002104910092BA4621070CD4039959
:10171000514500DA8A46BAF1010F05DD009AAAF1B7
:101720000101515C302908D0B84202DA10F1040FEF
:1017300006DA0121CDE9011015E0AAF10101E9E77E
:10174000002805DC049901440491AAEB000102E0A1
:10175000411C514500DD8A460499401A401C019005
:101760004FF000400290200704D40198504501DB5F
:10177000CDF8048000208DF84F0002980DF14F073E
:10178000B0F1004F25D02B200E9002984FF00208A8
:1017900000280CDA404202902D200E9007E00A212A
:1017A0000298FEF732FD3031029007F8011DB8F1C2
:1017B0000001A8F10108F2DC02980028EFD1791E9F
:1017C0000E980870307800F0200040F0450007F8CF
:1017D000020D12A8C01B00F107081498007800B190
:1017E000012000EB0A01019801EBE07105984144EA
:1017F000401A401E0590E00306D45B462146179A26
:10180000059800F05DF805441498007818B15A4620
:10181000179990476D1CE00324D55B462146179A23
:10182000059800F04DF805441CE00498002807DBFB
:10183000DDE90301884203DD0098405C179901E06F
:10184000179930205A469047049805F10105401C2D
:1018500004900198401E019004D12E205A461799F9
:1018600090476D1CBAF10001AAF1010ADDDC05E028
:1018700017F8010B5A46179990476D1CB8F10001F3
:10188000A8F10108F4DC5B462146179A0598ABE6FF
:101890002D0000002B000000200000002DE9F04189
:1018A000044600251E461746880404D405E0394640
:1018B0002020B0476D1C641EF9D52846BDE8F08194
:1018C0002DE9F041044600251E469046C80301D587
:1018D000302700E02027880404D505E0414638463B
:1018E000B0476D1C641EF9D52846BDE8F0810000A4
:1018F00070B50446064DE1B22846FFF779FB80211A
:101900002846FFF7D1FA0028F9D0204670BD000024
:10191000001001402DED028BFEF7ECFFFFF700FAFF
:10192000254DDFED268A9FED268A264C264E2888F7
:1019300000EE100AB8EE400A20EE280A20EE080A4F
:1019400084ED000A688800EE900AF8EE600A60EE06
:10195000A80A60EE880AC4ED010AA88800EE900A81
:10196000F8EE600A60EEA80A60EE880AC4ED020A8A
:1019700010EE100AFEF736FC41EC100B13A053ECEE
:10198000102BFFF73BFB6068FEF72CFC41EC100BC3
:1019900017A053EC102BFFF731FBA068FEF722FCD9
:1019A00041EC100B1BA053EC102BFFF727FB30462C
:1019B000FEF7F4FFBBE700001000002000008039B4
:1019C000333353401C000020EEFFFF000D0A20546B
:1019D00068652063757272656E742043332076618A
:1019E0006C7565203D2025662056200D0A000000FC
:1019F0000D0A205468652063757272656E7420410B
:101A0000342076616C7565203D2025662056200DBA
:101A10000A0000000D0A2054686520637572726523
:101A20006E742041362076616C7565203D202566F8
:101A30002056200D0A000000581A0008000000205F
:101A40001C0000001C100008741A00081C00002074
:101A50000C0400002C100008000000000102030428
:101A6000010203040607080900000000000000004E
:041A70000000000072
:04000005080001AD41
:00000001FF
